:100000000C94AB010C94BA0F0C94930F0C946008F1
:100010000C9460080C9460080C94D3010C94D301E8
:100020000C94D3010C94D3010C94D3010C943D0592
:100030000C94D3010C94D3010C941E0A0C94D3019C
:100040000C94490F0C94D3010C943C0E0C94160E96
:100050000C94D3010C94D3010C94D3010C94D301D0
:100060000C94F0080C94D30107634236B79BD8A7D1
:100070001A39685618AEBAAB558C1D3CB7CC5763CD
:10008000BD6DEDFD753EF6177231BF000000803F7B
:1000900008000000BE922449123EABAAAA2ABECD97
:1000A000CCCC4C3E00000080BEABAAAAAA3E000009
:1000B0000000BF000000803F000000000008417801
:1000C000D3BB4387D1133D190E3CC3BD4282AD2B38
:1000D0003E68EC8276BED98FE1A93E4C80EFFFBE30
:1000E00001C4FF7F3F00000000004E414E494E49D1
:1000F0005459494E46CDCCCC3D0AD7233C17B7D1F5
:100100003877CC2B329595E6241FB14F0A0000209A
:10011000410000C84200401C4620BCBE4CCA1B0E19
:100120005AAEC59D7400407A10F35A00A0724E1862
:10013000090010A5D4E80000E87648170000E40B99
:1001400054020000CA9A3B000000E1F5050000805F
:10015000969800000040420F000000A086010000B9
:1001600000102700000000E8030000000064000009
:100170000000000A00000000000100000000002C48
:1001800076D888DC674F0823DFC1DFAE59E1B1B70D
:1001900096E5E3E453C63AE651997696E8E6C284DA
:1001A00026EB898C9B62ED407C6FFCEFBC9C9F40F2
:1001B000F2BAA56FA5F490055A2AF75C936B6CF917
:1001C000676DC11BFCE0E40D47FEF520E6B500D0ED
:1001D000ED902E0300943577050080841E08000002
:1001E000204E0A000000C80C333333330F986E12D0
:1001F000831141EF8D2114893BE65516CFFEE6DBD6
:1002000018D1844B381BF77C1D901DA4BBE424201F
:100210003284725E228100C9F124ECA1E53D270001
:100220003E800052F4F4D0003415004FF4F4D000B6
:100230001A0B009DF4F4D0000D05013BF4F4D0003E
:1002400006830275F3F3D000034104EAF2F2D00012
:10025000022C07AEE2E2D00001000800E1E1D0008C
:1002600000801000E0E0D000024003334242D001A1
:100270003E800052F4F5D0013415004FF4F4D00163
:100280001A0B009DF4F4D0010D05013BF4F4D001EC
:1002900006830275F3F3D001034104EAF2F2D001C0
:1002A000022C07AEE2E2D00101000800E1E1D0013A
:1002B00000801000E0E0D001024003334242D00849
:1002C0007D0000108888D008682B0010F1F1D0085C
:1002D00034150010F5F5D0081A0B0010F4F4D0080E
:1002E0000D050010F3F3D00806830010F2F2D008D9
:1002F00003E80010E2E2D000000000240027002AFA
:1003000000000000080002010000030407000000D4
:10031000000000000000000000250028002B000065
:10032000000000230026002900040404040404043F
:100330000402020202020203030303030301020494
:100340000810204080010204081020010204081057
:1003500020001D21DB1411241FBECFEFD8E0DEBF2B
:10036000CDBF26E0AEE7B2E001C01D92A238B207D1
:10037000E1F712E0A0E0B1E0E6EAF2E602C00590A3
:100380000D92AE37B107D9F711E0CAEAD1E004C047
:100390002197FE010E945F2CC93AD107C9F70E943C
:1003A000E5140C9446310C940000809108038823D6
:1003B00061F09FB7F89420910803809107032130E2
:1003C00019F48DBB9FBF08958FBF0895FC01208550
:1003D000918580910803882379F08FB7F894309144
:1003E0000803313039F43DB3309307033DB33DBBCF
:1003F0008FBF02C0809307032CBD9DBD08959FB79A
:10040000F89480910603882319F0815080930603A5
:1004100080910603811105C08CB58F7B8CBD109235
:1004200008039FBF08958CB58F778CBD08958CB558
:1004300080688CBD08956EBD00000DB407FEFDCF31
:100440008EB508959CB5282F23709C7F922B9CBD60
:100450002DB582FB992790F9822F8E7F892B8DBD38
:100460000895FC01738362830895FC01778366839A
:100470000895FC017583648308950895089508958F
:10048000089580E00895FC0181850895FC01808530
:100490000895FC0187810895FC0186810895FC017F
:1004A000409595854923642B65870895FC016487F1
:1004B0000895FC0163870895FC0162870895FC019B
:1004C00064830895FC0165830895FC0122813381D2
:1004D00023303105D1F381E00895CF93DF93EC0110
:1004E000E881F9810280F381E02DCE01099588230E
:1004F000B9F3DF91CF91089581E0089520910E0323
:1005000030910F032817390771F490910C038091F3
:100510000D03981741F0E0910C03F0E0EA53FD4F12
:10052000808190E008958FEF9FEF089508951F93C5
:10053000CF93DF93DC015C962D913C915D97211563
:10054000310539F481E090E013969C938E931297D5
:100550003DC05196ED91FC91529750969C915097C9
:10056000892F80951FB75E964C915E9741FB772748
:1005700070F941FD6095F8944081772311F0492B83
:1005800001C048234083E9012197F1F748E05081F9
:1005900060FF02C0592B01C058235083E901219705
:1005A000F1F76695415099F7772321F090818923DF
:1005B000808303C08081982B90831FBF5C968D91B0
:1005C0009C915D970197F1F721E030E0C901DF913F
:1005D000CF911F91089520910E0330910F0328179A
:1005E000390771F480910D0320910C0390E0805C39
:1005F0009F4F821B910960E470E00E94F62B0895E2
:1006000080E090E0089520910E0330910F032817A9
:100610003907B9F490910C0380910D03981789F074
:10062000E0910C03F0E0EA53FD4F808120910C0330
:1006300030E02F5F3F4F2F73332720930C0390E060
:1006400008958FEF9FEF089585ED8093BC00809112
:10065000BC0084FDFCCF10928D0308954091A1024F
:10066000262F30E0240F311D21323105DCF420919A
:100670008D032430C9F4FC0180E090E0861758F423
:100680003091A1022191DC01A158BD4FA30FB11DF2
:100690002C930196F3CF8091A102680F6093A10281
:1006A00080E0089581E0089582E008950895E09142
:1006B000460380914503E81730F4F0E0E95BFC4F16
:1006C000808190E008958FEF9FEF08959091460309
:1006D00080914503981750F4E92FF0E0E95BFC4F57
:1006E000208130E09F5F9093460302C02FEF3FEFE1
:1006F000C90108958091450390E020914603821B33
:1007000091090895CF92DF92EF92FF920F931F937A
:10071000CF93DF937C01262F972F8A0180918E0340
:10072000882391F0C62FD72F6E01C40ED51ECC158D
:10073000DD0571F06991D701ED91FC910190F08197
:10074000E02DC7010995F3CF642F822F0E942E035D
:10075000C801DF91CF911F910F91FF90EF90DF9033
:10076000CF900895CF93DF931F92CDB7DEB7698303
:1007700020918E032223D1F02091B003203240F04B
:1007800021E030E0FC013383228380E090E015C05B
:1007900080918F03E82FF0E0E057FC4F9981908320
:1007A0008F5F80938F038093B00305C061E0CE011B
:1007B00001960E942E0381E090E00F90DF91CF918F
:1007C0000895089580E090E00895CF93DF93FC01B1
:1007D000228133812230310569F0EC01638D818DF6
:1007E0000E94970E60E0888D0E94970E82E090E054
:1007F0009B838A83DF91CF910895CF93DF93EC01A0
:100800008D899E89DC01ED91FC910680F781E02DB8
:10081000099561E08F890E94C70E61E08F890E946F
:10082000970E64E670E080E090E00E94030F81E0A4
:10083000DF91CF910895CF92DF92EF92FF92CF9305
:10084000DF93FC0186819781009741F0813091050B
:1008500039F08230910531F0039731F090E005C016
:1008600094E003C098E001C09CE08CB5837F892BA5
:100870008CBD228133812430310571F02330310564
:1008800081F02230310591F021303105A1F040E4B2
:1008900052E46FE070E013C040E054E264EF70E0B7
:1008A0000EC040E052E16AE770E009C040E059E064
:1008B0006DE370E004C040E854E86EE170E0A481AC
:1008C000B58120E0C12CC2E1DC2ECAE7EC2EF12C70
:1008D0004C155D056E057F0540F4F694E794D794BA
:1008E000C7942F5F2630A1F727E081E08227A1304F
:1008F000B10511F420E701C020E5382F3695932B80
:10090000922B908781708187119719F48CB5806242
:1009100002C08CB58F7D8CBD82819381019784301C
:10092000910528F4FC01E55EFE4FC08101C0C1E0E5
:100930008C2F0E942202DFB7F89480910603811168
:1009400027C0E3E3F3E09491E7E4F3E02491E92F97
:10095000F0E0EE0FFF1FE950FD4FA591B491EC912F
:10096000E22321F461E08AE00E94970E61E08AE0D0
:100970000E94C70E8CB580618CBD8CB580648CBD27
:1009800061E08DE00E94C70E61E08BE00E94C70E1F
:10099000809106038F5F80930603DFBF8C2FDF916A
:1009A000CF91FF90EF90DF90CF900C9422028F9226
:1009B0009F92AF92BF92CF92DF92EF92FF92CF932E
:1009C000DF93EC016B010E943D0F4B015C01E12CB8
:1009D000F12C0E943D0FDC01CB0188199909AA096D
:1009E000BB098C159D05AE05BF0530F48A819B813E
:1009F000039779F381E001C080E0DF91CF91FF9010
:100A0000EF90DF90CF90BF90AF909F908F90089520
:100A10008F929F92AF92BF92CF92DF92EF92FF920E
:100A2000CF93DF93EC016B010E943D0F4B015C0102
:100A3000E12CF12C0E943D0FDC01CB0188199909B2
:100A4000AA09BB098C159D05AE05BF0550F4E881C8
:100A5000F9810280F381E02DCE010995882351F3BD
:100A600001C080E0DF91CF91FF90EF90DF90CF90B9
:100A7000BF90AF909F908F9008951F920F920FB6E6
:100A80000F921124CF92DF92EF92FF920F931F9358
:100A90002F933F934F935F936F937F938F939F9386
:100AA000AF93BF93CF93DF93EF93FF93C09109036D
:100AB000D0910A038A819B81049709F0CAC02F89CB
:100AC00030E0F901EF5FFC4F8491F901E35CFC4FEA
:100AD0000491F901E75DFC4F1491112379F0811124
:100AE0000E946E0EE12FF0E0EE0FFF1FE15EFC4F63
:100AF000A591B491EC91E02381E009F480E081704C
:100B00009A8D892719F09F8D9F5F9F8F9E8D8917E2
:100B100071F098A1903518F02DE130E002C02BE083
:100B200030E098A1290F311D28A38E8F03C088A122
:100B30008C5E88A388A1803A08F4DDC08AA19BA1BD
:100B4000969587959BA38AA38F8D853028F08AA1DF
:100B50009BA198609BA38AA388A1805A88A31F8E1B
:100B600089A1882309F468C08CA18F5F8CA38C3085
:100B700008F4C1C08AA19BA1982F9F73892F8695E5
:100B80008695887028E0280F821749F0E82FF0E05A
:100B9000E15EFE4F3081931719F08F5FF5CF80E053
:100BA00020E1829FC00111242AA13BA196E0369545
:100BB00027959A95E1F7422F3695279536952795F3
:100BC000287038E0320F231749F0E22FF0E0E15EA1
:100BD000FE4F5081451719F02F5FF5CF20E0822B93
:100BE000AE0147595F4FFA019081DE01A859BF4F0E
:100BF0009923B1F0FA01908121E0290F20839E0111
:100C0000290F311DF90185A3FA0190818C91981764
:100C100088F019A281E08C8FCE010E94E5030AC002
:100C20008C939C91973008F460C09C91943408F0A8
:100C30005CC0E0CF1CA25FC08AA19BA188339B400F
:100C400009F059C081E089A31CA2C759DF4F18825F
:100C500052C08A819B81039709F04DC08E010459CF
:100C60001F4FF801808191E0980F9083811137C068
:100C70007E01FAE6EF0EF11CF7018081EF56FF4F7F
:100C80009081891748F0CE010E94E5038B899C89E9
:100C900001969C8B8B8B23C0FE01E80FF11DE3595D
:100CA000FF4F608170E06E01FBE6CF0ED11CF601B4
:100CB000808191E0980F908302C0759567958A9521
:100CC000E2F761707727888D0E94970EF601808188
:100CD000863028F01082F70180818F5F8083F801D1
:100CE0008081883040F0108206C019A28F859889D3
:100CF0000196988B8F87FF91EF91DF91CF91BF91F4
:100D0000AF919F918F917F916F915F914F913F91A3
:100D10002F911F910F91FF90EF90DF90CF900F9048
:100D20000FBE0F901F901895AF92BF92DF92EF9277
:100D3000FF920F931F93CF93DF9300D0CDB7DEB711
:100D40005C01162FF42EDFB6F894DC0155968D91D8
:100D50009C915697DC01ED91FC910088F189E02D82
:100D600029835A83099560E0F50187890E94970ECF
:100D7000D50155968D919C915697DC01ED91FC9192
:100D8000612F60680190F081E02D0995E82E0F2D0C
:100D90005A81152F2981F20EF01671F0F50185891F
:100DA0009689D8016D918D01DC01ED91FC91019046
:100DB000F081E02D0995F0CF61E0F50187890E946F
:100DC000970ED50155968D919C915697DC01ED912A
:100DD000FC910288F389E02D0995DFBE8E2D0F90DE
:100DE0000F90DF91CF911F910F91FF90EF90DF90C7
:100DF000BF90AF900895EF92FF920F931F93CF9300
:100E0000DF931F92CDB7DEB77C01162F0FB7F89492
:100E1000DC0155968D919C915697DC01ED91FC91EA
:100E20000088F189E02D4983099560E0F701878901
:100E30000E94970ED70155968D919C915697DC0193
:100E4000ED91FC91612F60680190F081E02D099592
:100E5000182FF70185899689DC01ED91FC910190AD
:100E6000F081E02D4981642F099561E0F7018789C0
:100E70000E94970ED70155968D919C915697DC0153
:100E8000ED91FC910288F389E02D09950FBF812F28
:100E90000F90DF91CF911F910F91FF90EF900895E8
:100EA0000F931F93CF93DF93EC01162F0FB7F89496
:100EB0008D899E89DC01ED91FC910088F189E02DFE
:100EC000099560E08F890E94970E8D899E89DC01CB
:100ED000ED91FC91612F6F770190F081E02D0995E4
:100EE0008D899E89DC01ED91FC910190F081E02DCE
:100EF00060E00995182F61E08F890E94970E8D8917
:100F00009E89DC01ED91FC910288F389E02D099521
:100F10000FBF812FDF91CF911F910F910895EF9215
:100F2000FF920F931F93CF93DF93CDB7DEB72A972E
:100F30000FB6F894DEBF0FBECDBF8C010E94FD033B
:100F4000E82E811102C0E12CADC0F801808D823005
:100F500029F08330C1F7FF24F39401C0F12C60E144
:100F6000C8010E945007F801838F9FEF980F9E3FA2
:100F700050F760E0F801808D0E94C70EF801818D66
:100F80008F3F49F480910B038430E8F691E0980F8D
:100F900090930B03818FF801918DE92FF0E0EE0F14
:100FA000FF1FEA5CFC4F11830083911103C062EEC6
:100FB00071E109C0913019F469ED71E104C092301A
:100FC00011F660ED71E18F2D0E94C114C8010E94DD
:100FD00009104FE86CE3C8010E94FB0640E36FE68E
:100FE000C8010E94FB0645E56AE5C8010E94FB06B0
:100FF00040E76CE5C8010E94FB068DE2898784ED1D
:101000008A876EE2C8010E945007F82E22E0AE01E6
:10101000475F5F4F6FE2C8010E9494064F2D477CE7
:1010200048686EE2C8010E94FB0648E050E06FEAA3
:1010300072E0CE0101960E943C2325E0AE014F5F95
:101040005F4F62E0C8010E94940622E0AE014A5F51
:101050005F4F69E1C8010E949406488567E3C801B3
:101060000E94FB0640E06CE2C8010E94FB0644E0DF
:101070006DE2C8010E94FB064CE667E0C8010E94D1
:10108000FB0640E868E0C8010E94FB0640E069E01A
:10109000C8010E94FB06C8010E94E10F6DE0C80173
:1010A0000E94EF0F8E2D2A960FB6F894DEBF0FBE6A
:1010B000CDBFDF91CF911F910F91FF90EF900895D9
:1010C0001F920F920FB60F9211242F933F934F93BD
:1010D0005F936F937F938F939F93AF93BF93EF93A0
:1010E000FF93E0910E03F0910F03309709F451C084
:1010F000968DA685B785858591FF04C09C9189232F
:1011000029F447C09C91892309F043C0A389B4897D
:101110009C918589809589238C93868997890197ED
:10112000F1F7608D718DA685B785558538E020E093
:10113000CB010197F1F7822F90E095958795282FA5
:101140004C91452309F02068315091F7868D81FD3F
:10115000209580910D0390E001968F73992730912F
:101160000C03381749F0A0910D03B0E0AA53BD4F0E
:101170002C9380930D0303C0868D8160868F828DB2
:10118000938D0197F1F7A389B4899C918589892B67
:101190008C93FF91EF91BF91AF919F918F917F9130
:1011A0006F915F914F913F912F910F900FBE0F90D4
:1011B0001F901895E0910E03F0910F03E817F907BF
:1011C00069F4A389B4899C918589809589238C933E
:1011D00010920F0310920E0381E0089580E00895AD
:1011E0001F920F920FB60F9211242F933F934F939C
:1011F0005F936F937F938F939F93AF93BF93EF937F
:10120000FF938091B900887F803609F49CC068F50F
:10121000883209F45BC090F4803109F454C038F48A
:10122000882309F4F6C0883009F44DC0F6C088312F
:1012300009F44CC0803209F45DC0EFC0803409F479
:1012400068C048F4803309F455C0883309F0E5C01C
:1012500080938B03D8C0803509F44FC0883509F4DA
:101260005DC0883409F0D9C0D6C0883909F4C7C038
:10127000A8F4883709F467C038F4883609F463C0E5
:10128000803709F460C0C9C0883809F4B8C0803913
:1012900009F45FC0803809F0C0C05BC0803B09F42E
:1012A00086C038F4803A09F466C0883A09F47FC0F1
:1012B000B4C0803C09F4A7C0883C09F4A4C0883BB2
:1012C00009F48AC0AAC08091680310C090918A0373
:1012D00080918903981770F5E0918A0381E08E0F61
:1012E00080938A03F0E0E759FC4F80818093BB0034
:1012F00085EC86C080938B038EC0E0918A0381E0E9
:101300008E0F80938A038091BB00F0E0E759FC4F79
:10131000808390918A03809189036EC0E0918A0353
:1013200081E08E0F80938A038091BB00F0E0E75943
:10133000FC4F808380918C0381116DC081E080938C
:10134000670384EA61C083E080938D031092C50235
:10135000CFCF8091C502803208F051C0E091C50224
:1013600081E08E0F8093C5028091BB00F0E0EB55C9
:10137000FD4F8083BDCF85EC8093BC0010928D0320
:101380008091C502803230F4E091C502F0E0EB5567
:10139000FD4F10826091C50270E0E091A302F091D0
:1013A000A40285EA92E009951092C50236C084E055
:1013B00080938D031092A2021092A102E0919F02ED
:1013C000F091A00209958091A102811105C081E0F0
:1013D0008093A10210927F02E091A20281E08E0F21
:1013E0008093A202F0E0E158FD4F80818093BB0022
:1013F0009091A2028091A102981708F479CF85E814
:101400008093BC000AC085EC8093BC0010928D03D1
:1014100004C010928B030E942403FF91EF91BF91AF
:10142000AF919F918F917F916F915F914F913F917C
:101430002F910F900FBE0F901F9018951F920F9233
:101440000FB60F9211242F933F934F935F936F9397
:101450007F938F939F93AF93BF93EF93FF9380916D
:10146000FC0581116DC08091FD059091FE050097EE
:1014700079F0DC01ED91FC910084F185E02D099576
:10148000892B09F45DC08091FD059091FE0512C085
:101490008091FF0590910006DC01ED91FC910084A4
:1014A000F185E02D0995892B09F44AC08091FF054B
:1014B00090910006DC01ED91FC910284F385E02D12
:1014C00009958A3049F590914E05E0914C05F091CF
:1014D0004D05E90FF11D108220914C0530914D050D
:1014E000B4E0243D3B0739F44AE554E050934D0500
:1014F00040934C0508C024ED34E030934D05209313
:101500004C052AE534E03093D3042093D2041092A2
:101510004E0591E090934F05E0914C05F0914D05FB
:1015200090914E0521E0290F20934E05E90FF11D02
:10153000808380914E05883718F087E780934E05A9
:10154000FF91EF91BF91AF919F918F917F916F919B
:101550005F914F913F912F910F900FBE0F901F9071
:101560001895CF92DF92EF92FF920F931F93CF9334
:10157000DF936C017A018B01C0E0D0E0CE15DF056E
:1015800089F0D8016D918D01D601ED91FC9101900A
:10159000F081E02DC6010995892B11F47E0102C06E
:1015A0002196ECCFC701DF91CF911F910F91FF9052
:1015B000EF90DF90CF900895FC01538D448D252F3F
:1015C00030E0842F90E0821B930B541710F0CF96DD
:1015D000089501970895FC01918D828D981761F00F
:1015E000828DDF01A80FB11D5D968C91928D9F5F5A
:1015F0009F73928F90E008958FEF9FEF0895FC0105
:10160000918D828D981731F0828DE80FF11D858DB7
:1016100090E008958FEF9FEF0895FC01918D228D4A
:10162000892F90E0805C9F4F821B91098F739927CF
:10163000089581EB93E00E940D0B21E0892B09F4C2
:1016400020E0822F0895FC01848DDF01A80FB11DD9
:10165000A35ABF4F2C91848D90E001968F739927E8
:10166000848FA689B7892C93A089B1898C918064D5
:101670008C93938D848D981306C00288F389E02D96
:1016800080818F7D80830895EF92FF920F931F9347
:10169000CF93DF93EC0181E0888F9B8D8C8D981325
:1016A00005C0E889F989808185FD24C0F62E0B8D5F
:1016B00010E00F5F1F4F0F731127E02E8C8DE81283
:1016C0000CC00FB607FCFACFE889F989808185FF45
:1016D000F5CFCE010E94230BF1CF8B8DFE01E80FD9
:1016E000F11DE35AFF4FF0820B8FEA89FB8980815D
:1016F000806207C0EE89FF896083E889F98980816B
:101700008064808381E090E0DF91CF911F910F9101
:10171000FF90EF900895CF93DF93EC01888D88239D
:10172000C9F0EA89FB89808185FD05C0A889B9894E
:101730008C9186FD0FC00FB607FCF5CF808185FF29
:10174000F2CFA889B9898C9185FFEDCFCE010E9497
:10175000230BE7CFDF91CF91089580E090E0892BB4
:1017600029F00E94190B81110C94000008953FB7D5
:10177000F8948091410390914203A0914303B0916A
:10178000440326B5A89B05C02F3F19F00196A11D63
:10179000B11D3FBFBA2FA92F982F8827820F911D07
:1017A000A11DB11DBC01CD0142E0660F771F881F4E
:1017B000991F4A95D1F7089508958CE308950E94E2
:1017C0005C2E0F931F93CF93DF93EC018881998157
:1017D000009729F02A813B812617370788F48B016F
:1017E0006F5F7F4F0E94922D009761F099838883ED
:1017F0001B830A832C813D81232B11F4FC01108271
:1018000081E001C080E0DF91CF911F910F91089599
:10181000EF92FF920F931F93CF93DF93FC012481EC
:1018200035816115710511F480E019C0411551052C
:10183000A9F07B01EC018A01020F131FB8010E947D
:10184000E10B882389F3288139818C819D81B7013F
:10185000820F931F0E94752E1D830C8381E0DF9100
:10186000CF911F910F91FF90EF900895CF93DF9349
:10187000EC0188819981009711F00E94FA2C19825D
:1018800018821D821C821B821A82DF91CF910895DB
:10189000CF93DF93FC01228133812130310549F060
:1018A000EC0140E061E00E94FB0681E090E09B8358
:1018B0008A8381E0DF91CF9108950F931F93CF9397
:1018C0008C01C62F61E00E945007837ECC71482FA7
:1018D0004C2B61E0C8010E94FB0667E2C8010E9430
:1018E000500787FFFACFCF911F910F910895CF93A3
:1018F000DF93FC01228133812330310519F1EC01A2
:10190000828193810497D1F0848D823154F045E532
:101910006AE5CF010E94FB0640E76CE5CE010E941C
:10192000FB0640E465E2CE010E94FB0660E1CE01C9
:101930000E945D0C84E090E09B838A83C65ADF4F4F
:10194000888101C080E0DF91CF910895CF92DF922E
:10195000EF92FF920F931F93CF93DF93EC016B01F4
:101960008A01E881F9810280F381E02D0995F82E42
:101970008823E1F0C114D104B1F00115110599F0EB
:10198000EFB6F8948D8DF8019081891710F48D8D44
:101990008083F801408150E0BE01625E7F4FC60146
:1019A0000E94612EEFBEC65ADF4F18828F2DDF9145
:1019B000CF911F910F91FF90EF90DF90CF900895FE
:1019C000CF93DF93EC016115710561F0FB0101908C
:1019D0000020E9F73197AF01461B570B0E94080C16
:1019E000811103C0CE010E94360CCE01DF91CF9150
:1019F0000895CF93DF93EC01FB0144815581608111
:101A000071810E94080C811103C0CE010E94360C26
:101A1000CE01DF91CF910895EF92FF920F931F9324
:101A2000CF93DF93EC017B018A01BA010E94E10BA5
:101A3000811104C0CE010E94360C07C01D830C83A7
:101A4000B701888199810E94752ECE01DF91CF91D7
:101A50001F910F91FF90EF900895CF93DF93EC01CA
:101A60006115710559F0FB0101900020E9F73197EC
:101A7000AF01461B570B0E940C0D02C00E94360C92
:101A8000CE01DF91CF910895CF93DF93EC01FB015D
:101A90008617970761F0608171816115710529F0E2
:101AA000448155810E940C0D02C00E94360CCE016B
:101AB000DF91CF910895FC01808191810C94FA2CE3
:101AC000EF92FF920F931F93CF93DF93CDB7DEB7C3
:101AD000A1970FB6F894DEBF0FBECDBF7C01CB013E
:101AE000BA01F701118210821382128215821482C8
:101AF00042E0420F8E010F5F1F4F0E94D322BC01B4
:101B0000C7010E942D0DA1960FB6F894DEBF0FBE3F
:101B1000CDBFDF91CF911F910F91FF90EF9008956E
:101B2000EF92FF920F931F93CF93DF93CDB7DEB762
:101B3000A1970FB6F894DEBF0FBECDBF7C01CB01DD
:101B4000BA01F70111821082138212821582148267
:101B500042E0420F8E010F5F1F4F0E94D322BC0153
:101B6000C7010E942D0DA1960FB6F894DEBF0FBEDF
:101B7000CDBFDF91CF911F910F91FF90EF9008950E
:101B80000F931F93CF93DF93CDB7DEB729970FB68F
:101B9000F894DEBF0FBECDBF8C01862FF8011182F5
:101BA0001082138212821582148250E0BE016F5F90
:101BB0007F4F90E00E946223BE016F5F7F4FC8019C
:101BC0000E942D0D29960FB6F894DEBF0FBECDBF33
:101BD000DF91CF911F910F9108956115710579F0F3
:101BE000FB0101900020E9F73197AF01461B570B2D
:101BF000DC01ED91FC910280F381E02D099480E0FD
:101C000090E008950F931F93CF93DF93EC010E9410
:101C1000ED0D8C016AE772E0CE010E94ED0D800FA0
:101C2000911FDF91CF911F910F9108951F920F92F5
:101C30000FB60F9211242F933F934F935F936F939F
:101C40007F938F939F93AF93BF93EF93FF9381EB1A
:101C500093E00E94230BFF91EF91BF91AF919F9171
:101C60008F917F916F915F914F913F912F910F9045
:101C70000FBE0F901F9018951F920F920FB60F92E4
:101C800011242F938F939F93EF93FF93E091C103C0
:101C9000F091C2038081E091C703F091C80382FDF7
:101CA00012C090818091CA038F5F8F732091CB0304
:101CB000821751F0E091CA03F0E0EF54FC4F958F8A
:101CC0008093CA0301C08081FF91EF919F918F9112
:101CD0002F910F900FBE0F901F901895833081F0B9
:101CE00028F4813099F08230A1F008958730A9F06E
:101CF0008830B9F08430D1F4809180008F7D03C0AA
:101D0000809180008F7780938000089584B58F77CD
:101D100002C084B58F7D84BD08958091B0008F7717
:101D200003C08091B0008F7D8093B00008951F9311
:101D3000CF93DF93282F30E0F901EF5FFC4F8491C0
:101D4000F901E35CFC4FD491F901E75DFC4FC491CC
:101D5000CC23C9F0162F81110E946E0EEC2FF0E0FB
:101D6000EE0FFF1FEB5EFC4FA591B4918FB7F89477
:101D7000111105C09C91ED2FE095E92302C0EC9173
:101D8000ED2BEC938FBFDF91CF911F910895CF93EF
:101D9000DF9390E0FC01E35CFC4F2491FC01E75DE4
:101DA000FC4F8491882361F190E0880F991FFC011A
:101DB000E950FD4FC591D491FC01EB5EFC4FA5911C
:101DC000B491611109C09FB7F8948881209582234E
:101DD0008883EC912E230BC0623061F49FB7F89496
:101DE0003881822F809583238883EC912E2B2C932E
:101DF0009FBF06C08FB7F894E8812E2B28838FBF32
:101E0000DF91CF9108958F929F92AF92BF92CF9220
:101E1000DF92EF92FF926B017C010E94B70B4B01A6
:101E20005C01C114D104E104F104F1F00E94B70B8C
:101E3000DC01CB0188199909AA09BB09883E9340A6
:101E4000A105B10570F321E0C21AD108E108F1083B
:101E500088EE880E83E0981EA11CB11CC114D10429
:101E6000E104F10419F7DDCFFF90EF90DF90CF9000
:101E7000BF90AF909F908F9008952FB7F894609186
:101E80003D0370913E0380913F03909140032FBF2B
:101E900008951F920F920FB60F9211242F933F9324
:101EA0008F939F93AF93BF9380913D0390913E0397
:101EB000A0913F03B091400330913C0323E0230FF6
:101EC0002D3720F40196A11DB11D05C026E8230F72
:101ED0000296A11DB11D20933C0380933D03909376
:101EE0003E03A0933F03B093400380914103909140
:101EF0004203A0914303B09144030196A11DB11D7B
:101F00008093410390934203A0934303B09344030F
:101F1000BF91AF919F918F913F912F910F900FBEE5
:101F20000F901F9018951F920F920FB60F921124C9
:101F30002F933F934F935F936F937F938F939F93D1
:101F4000AF93BF93EF93FF93E0910301F0910401EE
:101F50000995FF91EF91BF91AF919F918F917F91E3
:101F60006F915F914F913F912F910F900FBE0F9006
:101F70001F9018951F920F920FB60F9211242F9356
:101F80003F934F935F936F937F938F939F93AF9301
:101F9000BF93EF93FF93E0910101F0910201099546
:101FA000FF91EF91BF91AF919F918F917F916F9131
:101FB0005F914F913F912F910F900FBE0F901F9007
:101FC0001895CF93DF93EC016DE30E945007482FE3
:101FD0004E7F6DE3CE01DF91CF910C94FB066E3EF8
:101FE0001CF0FC01648F03C02EEEFC01248FFC0169
:101FF000448D4E3024F44E5E4F71406807C042312C
:102000001CF0455F4F7101C0425F406661E10C9476
:10201000FB06CF93DF93FC0122813381223031050F
:10202000B1F0EC01848D823154F045E56AE5CF01D1
:102030000E94FB0640E76CE5CE010E94FB066A8D1C
:10204000CE010E945D0C82E090E09B838A83DF9149
:10205000CF910895AF92BF92DF92EF92FF920F93CC
:102060001F93CF93DF931F92CDB7DEB75C01D62EBF
:10207000142F4D3308F0B4C0DC01ED91FC910484C1
:10208000F585E02D79830995C5010E9409100FB7E8
:10209000F894F50185899689DC01ED91FC91008821
:1020A000F189E02D099560E0F50187890E94970E7E
:1020B000D50155968D919C915697DC01ED91FC913F
:1020C0000190F081E02D60E80995F501A589B689B8
:1020D000ED91FC9111970190F081E02D64E0610F8A
:1020E000CD010995D50155968D919C915697DC01AE
:1020F000ED91FC910190F081E02DD5011A966C9143
:102100000995F50185899689DC01ED91FC91019095
:10211000F081E02DD5011B966C910995F50185891B
:102120009689DC01ED91FC910190F081E02DD501C3
:102130001C966C910995F50185899689DC01ED91D4
:10214000FC910190F081E02DD5011D966C910995CF
:10215000ED2C7981F72E115070F0F5018589968963
:10216000D7016D917D01DC01ED91FC910190F08131
:10217000E02D0995F0CF61E0F50187890E94970E67
:10218000D50155968D919C915697DC01ED91FC916E
:102190000288F389E02D09950FBFF50182819381B3
:1021A000039701F1848D823154F04DE56AE5C50154
:1021B0000E94FB064CE76CE5C5010E94FB0640E06F
:1021C00065E2C5010E94FB066CE0C5010E945D0C42
:1021D00083E090E0D50113969C938E93129702C0F2
:1021E00080E001C081E00F90DF91CF911F910F91AE
:1021F000FF90EF90DF90BF90AF900895EF92FF9225
:102200000F931F93CF93DF93EC0168E20E94500776
:10221000182F8A819B81039711F413FD08C08A81CE
:102220009B81049709F0B5C012FD0BC0B2C0CE016E
:102230000E9409102B893C892F5F3F4F3C8B2B8BD1
:10224000EECF64E2CE010E945007869581958E877D
:102250000E943D0FFE01E55AFF4F60837183828328
:102260009383CE010E940910FFB6F8948D899E8950
:10227000DC01ED91FC910088F189E02D099560E089
:102280008F890E94970E8D899E89DC01ED91FC91CA
:102290000190F081E02D60E009958D899E89DC0137
:1022A000ED91FC910190F081E02D60E00995082FFF
:1022B0008CEF800F8D3300F58D899E89DC01ED91C7
:1022C000FC910190F081E02D60E009958E838D8175
:1022D000811121C09E818C819817E9F08E818F3FFA
:1022E00059F419C089899A8901969A8B898B81E062
:1022F000FE01E65AFF4F808361E08F890E94970EAE
:102300008D899E89DC01ED91FC910288F389E02D95
:102310000995FFBE3EC08D899E89DC01ED91FC913F
:102320000190F081E02D60E009958F838D899E8971
:10233000DC01ED91FC910190F081E02D60E00995C8
:1023400088878D899E89DC01ED91FC910190F08157
:10235000E02D60E0099589871D8E10E00450110979
:102360008D8D90E0801791070CF0BCCFED8C8D899E
:102370009E89DC01ED91FC910190F081E02D60E0FF
:102380000995FE01EE0DF11D868F8D8D8F5F8D8F6E
:10239000E7CFDF91CF911F910F91FF90EF900895BC
:1023A00080913A0390913B03009711F00C94FE103A
:1023B00008958091380390913903009711F00C949F
:1023C000FE1008958091360390913703009711F025
:1023D0000C94FE100895382F2091B003909171064F
:1023E000213208F049C080918D038111FCCF42E079
:1023F00040938D0330938C033FEF30938B03109207
:102400008A0320938903A0E9B3E049E653E0FA0187
:102410003E2F341B321718F43D913193F9CF1092AF
:10242000680320916803990F922B90936803909111
:102430006703913061F41092670390916803909361
:10244000BB009091BC0093FDF8CF95EC01C095EED8
:102450009093BC0090918D039230E1F390918B03A7
:102460009F3F79F080918B03803241F080918B0304
:10247000803331F084E005C081E003C082E001C018
:1024800083E010928F031092B00310928E03089590
:10249000EF92FF920F931F93CF93DF938C01D62F70
:1024A00081E080938E0387E78093710610928F03FB
:1024B0001092B003F80160818EE494E00E94B203B0
:1024C00081E00E94EB118093700681115BC08091C6
:1024D0008D038111FCCF9D2FD13208F090E221E0D5
:1024E00020938D0320938C038FEF80938B031092A6
:1024F0008A03890F809389032093680320916803DE
:102500002E6E2093680380916703813061F41092EE
:102510006703809168038093BB008091BC0083FDBA
:10252000F8CF85EC01C085EE8093BC0080918D03CF
:102530008130E1F380918A03891710F490918A0326
:10254000A9E6B3E027E433E0F9018E2F821B891757
:1025500018F48D918193F9CF10924603909345031F
:10256000C0E0CD176CF47801EC0EF11CC7FDFA94B5
:102570008EE494E00E946603F7018083CF5FF1CF81
:1025800081E001C080E0DF91CF911F910F91FF901A
:10259000EF9008950F931F93CF93DF9300D0CDB7A3
:1025A000DEB78B01898362E0CE0101960E9448125A
:1025B000882359F0898190E0982F88272A81822BDF
:1025C000F8019183808381E003C0F80111821082B9
:1025D0000F900F90DF91CF911F910F9108950F935E
:1025E0001F93CF93DF9300D0CDB7DEB78B018983E4
:1025F00062E0CE0101960E944812882359F0898139
:1026000090E0982F88272A81822BF801918380837C
:1026100081E003C0F801118210820F900F90DF91CA
:10262000CF911F910F9108958F929F92AF92BF9279
:10263000FF920F931F93CF93DF9300D0CDB7DEB7F8
:102640008C0186EF898362E0CE0101960E944812D8
:10265000F82E882309F452C0698170E080E090E090
:102660000E94822720E030E040E853E40E94E12706
:102670004B015C014A81642F70E080E090E00E9491
:1026800082279B01AC01C501B4010E94F42820916E
:1026900040063091410640914206509143060E9407
:1026A000F32820913C0630913D0640913E06509122
:1026B0003F060E94E1274B015C01209148063091C2
:1026C000490640914A0650914B060E94F4289B010E
:1026D000AC01609144067091450680914606909148
:1026E00047060E9460299B01AC01C501B4010E940C
:1026F000F428F80160837183828393838F2D0F9078
:102700000F90DF91CF911F910F91FF90BF90AF90ED
:102710009F908F90089521E020938E0327E72093C8
:10272000710610928F031092B00342E050E0BC019A
:102730008EE494E00E94820381E00E94EB11982FC6
:102740008093700681E0911180E008952F923F926E
:102750004F925F926F927F928F929F92AF92BF92B1
:10276000CF92DF92EF92FF921F93CF93DF93CDB77B
:10277000DEB727970FB6F894DEBF0FBECDBF1C01A2
:102780007B0186EF898363E0CE0101960E944812A7
:10279000182F882309F4DCC020E030E048EC51E435
:1027A000F70160817181828193810E94F3286B011E
:1027B0007C019B01AC010E94E1274B015C01698116
:1027C00070E080E090E00E94822720E030E040E866
:1027D00053E40E94E1272B013C016A8170E080E014
:1027E00090E00E9482279B01AC01C301B2010E94CC
:1027F000F4282B013C016B8170E080E090E00E94A6
:10280000822720E030E040E85BE30E94E1279B0163
:10281000AC01C301B2010E94F4286C837D838E83D6
:102820009F83209154063091550640915606509151
:102830005706C501B4010E94E1272B013C012091FC
:102840005006309151064091520650915306C701EF
:10285000B6010E94E1279B01AC01C301B2010E94B5
:10286000F42820914C0630914D0640914E0650912F
:102870004F060E94F4289B01AC016C817D818E8102
:102880009F810E94F3282B013C012091600630912A
:1028900061064091620650916306C501B4010E9431
:1028A000E1274B015C0120915C0630915D0640916F
:1028B0005E0650915F06C701B6010E94E1279B01A9
:1028C000AC01C501B4010E94F42820915806309152
:1028D000590640915A0650915B060E94F4289B01CC
:1028E000AC01C301B2010E9460296B017C019B0114
:1028F000AC010E94E12720916C0630916D06409159
:102900006E0650916F060E94E1274B015C012091F9
:1029100068063091690640916A0650916B06C701BE
:10292000B6010E94E1279B01AC01C501B4010E94E0
:10293000F428209164063091650640916606509116
:1029400067060E94F428F101608371838283938378
:10295000812F27960FB6F894DEBF0FBECDBFDF9153
:10296000CF911F91FF90EF90DF90CF90BF90AF90ED
:102970009F908F907F906F905F904F903F902F909F
:1029800008958230B8F4E82FF0E0EE0FFF1FEF5FFC
:10299000FE4F71836083813039F0809169008360DC
:1029A00080936900E89A0895809169008C60809313
:1029B0006900E99A08958BE991E09093020680936B
:1029C000010681E096E00C94DA08CF93DF93CDB74F
:1029D000DEB7C955D1090FB6F894DEBF0FBECDBF23
:1029E000789484B5826084BD84B5816084BD85B5EA
:1029F000826085BD85B5816085BD80916E008160F6
:102A000080936E001092810080918100826080939B
:102A1000810080918100816080938100809180009D
:102A20008160809380008091B10084608093B100C8
:102A30008091B00081608093B00080917A008460C2
:102A400080937A0080917A00826080937A008091EE
:102A50007A00816080937A0080917A008068809308
:102A60007A001092C100E091C103F091C20382E0AC
:102A70008083E091BD03F091BE031082E091BF031B
:102A8000F091C00380E180831092C903E091C503F7
:102A9000F091C60386E08083E091C303F091C40304
:102AA000808180618083E091C303F091C4038081C1
:102AB00088608083E091C303F091C40380818068C3
:102AC0008083E091C303F091C40380818F7D808374
:102AD00069EA71E081EB93E00E94020E10924603D6
:102AE0001092450310928F031092B00310928D0341
:102AF00081E080938C031092670361E082E10E9481
:102B0000970E61E083E10E94970E8091B9008E7F5D
:102B10008093B9008091B9008D7F8093B90088E4DB
:102B20008093B80085E48093BC0066E276E08AEA90
:102B30000E94CA12882309F447C068E276E08CEA52
:102B40000E94CA12882309F43FC06AE276E08EEA46
:102B50000E94CA128823C1F166E376E080EB0E94EE
:102B6000EF12882389F168E376E082EB0E94EF128E
:102B7000882351F16AE376E084EB0E94EF12882308
:102B800019F16CE276E086EB0E94CA128823E1F02C
:102B90006EE276E088EB0E94CA128823A9F060E317
:102BA00076E08AEB0E94CA12882371F062E376E035
:102BB0008CEB0E94CA12882339F064E376E08EEB36
:102BC0000E94CA12811101C0FFCF60912A06709144
:102BD0002B06072E000C880B990B0E94822720E001
:102BE00030E040EA5BE30E94E1272B013C01609169
:102BF00036067091370680E090E00E9480272FE62D
:102C000032E143E053E30E94E1276B017C016091D4
:102C10002C0670912D06072E000C880B990B0E9434
:102C2000822720E030E048EC57E30E94E1274B0187
:102C30005C01609138067091390680E090E00E9456
:102C400080272DEC3CEC4CE454E30E94E127609398
:102C50003C0670933D0680933E0690933F0660913C
:102C60003A0670913B0680E090E00E9480276093D6
:102C7000400670934106809342069093430660910C
:102C8000320670913306072E000C880B990B0E94B8
:102C900082272AE037ED43EA5DE30E94E127609353
:102CA00044067093450680934606909347066091CC
:102CB000340670913506072E000C880B990B0E9484
:102CC000822720E030E040E253E40E9460296093D4
:102CD00048067093490680934A0690934B0660918C
:102CE000260670912706072E000C880B990B0E9470
:102CF000822760934C0670934D0680934E06909306
:102D00004F066091280670912906072E000C880B4B
:102D1000990B0E94822720E030E040EA5CE30E94A9
:102D2000E12760935006709351068093520690936A
:102D3000530660912E0670912F06072E000C880B0B
:102D4000990B0E94822720E030E048E45AE30E9479
:102D5000E12760935406709355068093560690932E
:102D6000570620E030E040E057E4C701B6010E947A
:102D7000E127609358067093590680935A06909302
:102D80005B06A3019201C701B6010E94E12760938F
:102D90005C0670935D0680935E0690935F06A501C6
:102DA0009401C701B6010E94E12760936006709309
:102DB000610680936206909363068CEE91E5A7E12D
:102DC000B0E48093640690936506A0936606B09382
:102DD000670680E394E3AEE7BFE3809368069093D1
:102DE0006906A0936A06B0936B0680E097E5A4E9B4
:102DF000B6E380936C0690936D06A0936E06B09335
:102E00006F0684EF89838EE28A83CE0101960E9449
:102E10008B13811185E0682F880F770B880B990B36
:102E20000E94030FCE0101960E94141384EF8A8B37
:102E30008B8BCE0142960E948B1381118AE1682F01
:102E4000880F770B880B990B0E94030FBE016F5FF1
:102E50007F4F82E296E00E94A61360E08EE00E941F
:102E6000C70E61E082E00E94C70E60E082E00E942F
:102E7000970E61E088E00E94C70E0091FD05109159
:102E8000FE050115110509F49AC0D8015B961C9244
:102E90001E925A9759961C921E92589757961C92BA
:102EA0001E9256978DE991E05D969C938E935C9768
:102EB0001C968C911C97863108F058C02DEB30E0A1
:102EC00057963C932E9356972BE931E059963C93B5
:102ED0002E9358972CE231E05B963C932E935A97B1
:102EE00090916800883050F021E08E3008F420E0A6
:102EF00081E001C0880F2A95EAF701C084E0892BA0
:102F000080936800F8019485983038F09E3040F046
:102F1000963148F020E030E008C02DE630E005C0F2
:102F20002BE630E002C02CE630E0D80154963C930A
:102F30002E935397983030F481E001C0880F9A9512
:102F4000EAF70EC0292F30E09E3018F428503109DE
:102F500002C02E50310981E001C0880F2A95EAF79E
:102F6000F801858B848D958D0197F1F7D8015A96DC
:102F70008D919C915B97892B09F44AC080910E0337
:102F800090910F038017910709F442C0009711F048
:102F90000E94DA08F801868D8E7F868F10920D03CD
:102FA00010920C0310930F0300930E030388F4890F
:102FB000E02D9081D80155968C91892B28C0E09105
:102FC000FF05F0910006A089B18982E08C93A48569
:102FD000B5851C92A685B7858FEC8C93108EA4893D
:102FE000B58986E08C93A289B3898C9180618C939A
:102FF000A289B3898C9188608C93A289B3898C91C2
:1030000080688C930288F389E02D80818F7D808396
:103010006AE070E080E090E00E94030F85EC91E0B0
:103020000E94C62287EF91E00E94C62287E092E0CC
:103030000E94C6228FEA87BD80916E0082608093D5
:103040006E0081E08093000161E08091AF050E94F5
:10305000C70E60E08091AF050E94970E61E08091FD
:10306000AF050E94970E6AE070E080E090E00E9459
:10307000030F60E08091AF050E94970E6AE070E058
:1030800080E090E00E94030F80E595E00E948F07AA
:103090008823A9F14CE667E080E595E00E94FB06F5
:1030A00040E468E080E595E00E94FB0640E069E0CE
:1030B00080E595E00E94FB0664E180E595E00E94D2
:1030C000EF0F4091B10550E04115510599F020E115
:1030D0006EE380E595E00E9494066DE380E595E05F
:1030E0000E945007482F41606DE380E595E00E9403
:1030F000FB0606C080E595E00E94E10F01C0FFCF0E
:1031000068E572E081EB93E00E94020E69E672E0EE
:1031100081EB93E00E94ED0D84E6882E912CA12C8A
:10312000B12C2DB63EB62A961FAE1EAE2A972C960F
:103130001FAE1EAE2C972E961FAE1EAE2E9740E0F1
:1031400050E06CE772E0CE01885B9F4F0E940C0D4F
:1031500084EF89838EE28A83CE0101960E948B13CD
:10316000811185E0682F880F770B880B990B0E94DF
:10317000030FCE018E5A9F4F0E94141384EF898350
:103180008A83CE0101960E948B1381118AE1682FF8
:10319000880F770B880B990B0E94030FBE016E5AA4
:1031A0007F4FCE01825B9F4F0E94A6132091220683
:1031B00030912306409124065091250662966CAD0D
:1031C0007DAD8EAD9FAD62970E9460292EEA3CEDE9
:1031D00042E45EE30E946F2A9B01AC0160E070E074
:1031E00080E89FE30E94F32820E03AE24DE257E4B2
:1031F0000E94E1276B017C016093320370933303DB
:10320000809334039093350360E070E0CB010E941B
:1032100082279B01AC01C701B6010E946A2A1816D9
:103220002CF4C701B6010E94D22902C060E070E010
:103230006C527140072E000C880B990B0E9482275C
:103240009B01AC01C701B6010E947B2787FF04C028
:1032500061E088E00E94970E61E082E00E94970E94
:103260008BE594E00197F1F780E480937C008091F6
:103270007A00806480937A0080917A00182F10740D
:1032800086FDFACF609178008091790070E07B0133
:10329000F82AF0923103E092300360E082E00E946D
:1032A000970E8091260390912703892BE1F481E00A
:1032B00090E09093270380932603E0E1F3E0E1920E
:1032C000F192B3E0E432FB07D1F72AE030E0E29E6E
:1032D000C001E39E900DF29E900D11249093250362
:1032E000809324032DC06091240370912503809165
:1032F000100390911103681B790BE0E1F3E08281E8
:1033000093818193919323E0E232F207C1F7F09227
:103310002303E09222036E0D7F1D709325036093BB
:103320002403072E000C880B990B0E94822720E0B3
:1033300030E040E251E40E9460290E94D2297B01E2
:10334000F0923103E0923003B701FF0C880B990B28
:103350000E9482272AE137E64CE950E40E94E127E7
:1033600020E030E040E351E40E94E1276B017C0162
:1033700060932C0370932D0380932E0390932F035F
:1033800020E030E048EC53E40E946A2A87FD1FC029
:1033900020E030E048EC53E4C701B6010E94F32876
:1033A00060932C0370932D0380932E0390932F032F
:1033B0002DEC3CEC4CE45EE30E94E1276093280393
:1033C0007093290380932A0390932B0308C01092D3
:1033D00028031092290310922A0310922B03309194
:1033E0004F0567963FAF6797311198C1C090CA05E6
:1033F000D090CB05E090CC05F090CD054090CE0567
:103400005090CF056090D0057090D1052AE932EB3D
:1034100043E05FE36091DA057091DB058091DC05A4
:103420009091DD050E94E1276A966CAF7DAF8EAF6B
:103430009FAF6A978091B8059091B9051B8A1A8A47
:103440001D8A1C8A1F8A1E8A4AE0BE016F5F7F4F59
:103450000E946D23BE016F5F7F4FCE0142960E9496
:103460002D0D4AE06091B405CE0101960E94C00D79
:103470004AE06091B305CE0148960E94C00D4AE033
:103480006091B205CE0184960E94C00D1F8E1E8EE3
:1034900019A218A21BA21AA2BE016C5D7F4FCE0119
:1034A0004E960E94440D66E172E0CE014E960E9457
:1034B000E00CBE01685E7F4F0E94F90C66E172E08D
:1034C0000E94E00CBE016F5F7F4F0E94F90C66E125
:1034D00072E00E94E00CBE016E5E7F4F0E94F90C0C
:1034E000BC01CE01885B9F4F0E94440DCE014E96D9
:1034F0000E945B0DCE0184960E945B0DCE01489622
:103500000E945B0DCE0101960E945B0DCE0142969A
:103510000E945B0D4091320350913303609134035C
:103520007091350322E0CE0101960E94600D22E0E9
:103530006A964CAD5DAD6EAD7FAD6A97CE01429699
:103540000E94900D22E0B301A201CE0148960E9494
:10355000900D22E0B701A601CE014E960E94900D7B
:1035600040912C0350912D0360912E0370912F03F5
:1035700022E0CE0184960E94900D40912803509144
:10358000290360912A0370912B0322E0CE018A96D1
:103590000E94900D62964CAD5DAD6EAD7FAD6297B1
:1035A00022E0CE01C0960E94600D66964CAD5DADE6
:1035B0006EAD7FAD669722E0CE01C6960E94600D8B
:1035C0001DAE1CAE1FAE1EAE22961FAE1EAE2297C3
:1035D00042E050E068E172E0CE01CC960E940C0D12
:1035E000BE016A5C7F4FCE01CC960E94F90C6BE164
:1035F00072E00E94E00CBE01605D7F4F0E94F90CFA
:103600006FE172E00E94E00CBE01665D7F4F0E9498
:10361000F90C63E272E00E94E00CBE016C5D7F4F2A
:103620000E94F90C68E272E00E94E00CBE01625E4A
:103630007F4F0E94F90C6DE272E00E94E00CBE0127
:10364000685E7F4F0E94F90C62E372E00E94E00C1A
:10365000BE016E5E7F4F0E94F90C66E372E00E942D
:10366000E00CBE01685B7F4F0E94F90C6BE372E0D7
:103670000E94E00CBE016F5F7F4F0E94F90C249600
:103680001FAE1EAE249726961FAE1EAE2697289616
:103690001FAE1EAE2897BC01CE018E5B9F4F0E94CD
:1036A000440DCE01CC960E945B0DCE01C6960E94C1
:1036B0005B0DCE01C0960E945B0DCE018A960E94E2
:1036C0005B0DCE0184960E945B0DCE014E960E944A
:1036D0005B0DCE0148960E945B0DCE0142960E9482
:1036E0005B0DCE0101960E945B0D28968EAD9FADBD
:1036F00028977C0161E0E61AF108ADB7BEB7A81BB8
:10370000B90B0FB6F894BEBF0FBEADBF0DB71EB755
:103710000F5F1F4F009709F042C554C510924F0527
:10372000E090D204F090D304F70101900020E9F773
:1037300031979F012E193F09A90144505109F70102
:10374000E40FF51F80818A32D9F52E0D3F1DF90156
:1037500033978081803354F08A3314F4805307C048
:103760009FEB980F963010F4875301C080E0B0E1D2
:103770008B9FC0011124F90132972081203354F02E
:103780002A3314F410ED05C03FEB320F363010F43D
:1037900019EC120F810F911D62E0262F30E02417E3
:1037A000350758F4F701E20FF31F2081022E000CB9
:1037B000330B822793276F5FF0CF892B09F02FC53A
:1037C0006FE372E0C7010E948B2E892B09F46FC250
:1037D0006CE270E0C7010E946A2E8C010F5F1F4FE0
:1037E000C8010E94F3226B017C010E94D9292B01A0
:1037F0003C0120E137E240E050E00E940A2C209397
:10380000B205A50194010E940A2C2093B305C301BF
:10381000B201A50194010E940A2C6093B40520E036
:1038200030E040E85FE3C701B6010E94132A20E0C0
:1038300030E04AE754E40E94E1270E94D9297093BE
:10384000B9056093B8056CE270E0C8010E946A2E69
:103850007C018C010F5F1F4FFC0181818C3209F4C8
:10386000A9C042E050E0B801CE0101960E947C2E32
:103870001B82CE0101960E9415239B01AC0160E8DA
:1038800076E988E990E00E94E62B2B013C01B70124
:103890006D5F7F4F42E050E0CE0101960E947C2E8A
:1038A0000B5F1F4F44E050E0B801CE0103960E9429
:1038B0007C2E1F82CE0101960E9415239B01AC0134
:1038C000A2E3B0E00E94A22823E030E040E050E014
:1038D0000E942C2C69017A01D301C201820F931F2F
:1038E000A41FB51F8093C2059093C305A093C40580
:1038F000B093C505C301B20120EA36E841E050E0CB
:103900000E942C2CCA01B9010E9482272B013C0184
:10391000C701B6010E9482272CE933E549EC56E342
:103920000E94E1279B01AC01C301B2010E94F4286F
:103930002B013C016093BA057093BB058093BC05D5
:103940009093BD0520E030E048EC52E40E946029ED
:103950000E94D2296B017C0184E68C9DB0018D9D73
:10396000700D1124072E000C880B990B0E948227E2
:103970009B01AC01C301B2010E94F32820E030E0BA
:1039800040E752E40E9460292B013C01B601DD0CA6
:10399000880B990B0E9482279B01AC01C301B201E5
:1039A0000E94F4286093CA057093CB058093CC05E0
:1039B0009093CD056CE270E0C8010E946A2EFC0174
:1039C0009C012F5F3F4F81818C3201F1833589F457
:1039D0008091CA059091CB05A091CC05B091CD0501
:1039E000B0588093CA059093CB05A093CC05B093B3
:1039F000CD0591819E3411F0933519F49093EA0529
:103A000005C09C3209F00BC41092EA056CE270E02C
:103A1000C9010E946A2E7C018C010F5F1F4FDC01DF
:103A200011968C918C3209F4A9C043E050E0B801A2
:103A3000CE0101960E947C2E1C82CE0101960E942E
:103A400015239B01AC0160E876E988E990E00E94CB
:103A5000E62B2B013C01B7016C5F7F4F42E050E049
:103A6000CE0101960E947C2E0A5F1F4F44E050E079
:103A7000B801CE0103960E947C2E1F82CE010196D2
:103A80000E9415239B01AC01A2E3B0E00E94A22892
:103A900023E030E040E050E00E942C2C69017A01E4
:103AA000D301C201820F931FA41FB51F8093C605C7
:103AB0009093C705A093C805B093C905C301B2018F
:103AC00020EA36E841E050E00E942C2CCA01B901FE
:103AD0000E9482272B013C01C701B6010E94822768
:103AE0002CE933E549EC56E30E94E1279B01AC0148
:103AF000C301B2010E94F4282B013C016093BE0572
:103B00007093BF058093C0059093C10520E030E01D
:103B100048EC52E40E9460290E94D2296B017C018A
:103B200084E68C9DB0018D9D700D1124072E000C34
:103B3000880B990B0E9482279B01AC01C301B20143
:103B40000E94F32820E030E040E752E40E94602920
:103B50002B013C01B601DD0C880B990B0E948227DA
:103B60009B01AC01C301B2010E94F4286093CE0511
:103B70007093CF058093D0059093D1056CE270E0EF
:103B8000C8010E946A2EFC019C012F5F3F4F81817A
:103B90008C3201F1873589F48091CE059091CF0563
:103BA000A091D005B091D105B0588093CE059093E7
:103BB000CF05A093D005B093D1059181973511F031
:103BC000953419F49093EB0505C09C3209F027C396
:103BD0001092EB056CE270E0C9010E946A2E8C0124
:103BE0000F5F1F4FFC0181818C3229F0C8010E94B8
:103BF000F7228093EE056CE270E0C8010E946A2E05
:103C00008C010F5F1F4FDC0111968C918C3229F0D3
:103C1000C8010E94F7228093EF056CE270E0C801B2
:103C20000E946A2E8C010F5F1F4FFC0181818C3234
:103C300059F0C8010E94F3226093E6057093E705EE
:103C40008093E8059093E9056CE270E0C8010E945A
:103C50006A2E8C010F5F1F4FDC0111968C918C3204
:103C600059F0C8010E94F3226093D6057093D705DE
:103C70008093D8059093D9056CE270E0C8010E944A
:103C80006A2E6CE270E001960E946A2EFC0121818E
:103C90002C3209F47EC201960E94F3226093D20571
:103CA0007093D3058093D4059093D50572C266E4D2
:103CB00072E0C7010E948B2E892B09F4B0C26CE21E
:103CC00070E0C7010E946A2E8C010F5F1F4FC80170
:103CD0000E94F3226B017C010E94D9292B013C0137
:103CE00020E137E240E050E00E940A2C2093B20528
:103CF000A50194010E940A2C2093B305C301B201CF
:103D0000A50194010E940A2C6093B40520E030E0E4
:103D100040E85FE3C701B6010E94132A20E030E0CB
:103D20004AE754E40E94E1270E94D9297093B9051B
:103D30006093B8056CE270E0C8010E946A2EDC0155
:103D400011962C91213421F421E02093ED0505C03A
:103D5000263509F064C21092ED056CE270E0019620
:103D60000E946A2E7C018C010F5F1F4FFC01818134
:103D70008C3209F4A9C042E050E0B801CE010196AE
:103D80000E947C2E1B82CE0101960E9415239B016E
:103D9000AC0160E876E988E990E00E94E62B2B010F
:103DA0003C01B7016D5F7F4F42E050E0CE010196CC
:103DB0000E947C2E0B5F1F4F44E050E0B801CE0103
:103DC00003960E947C2E1F82CE0101960E9415232D
:103DD0009B01AC01A2E3B0E00E94A22823E030E006
:103DE00040E050E00E942C2C69017A01D301C2010D
:103DF000820F931FA41FB51F8093C2059093C30524
:103E0000A093C405B093C505C301B20120EA36E80A
:103E100041E050E00E942C2CCA01B9010E94822787
:103E20002B013C01C701B6010E9482272CE933E532
:103E300049EC56E30E94E1279B01AC01C301B201AA
:103E40000E94F4282B013C016093BA057093BB05D6
:103E50008093BC059093BD0520E030E048EC52E42F
:103E60000E9460290E94D2296B017C0184E68C9D0E
:103E7000B0018D9D700D1124072E000C880B990B3D
:103E80000E9482279B01AC01C301B2010E94F3286A
:103E900020E030E040E752E40E9460292B013C0121
:103EA000B601DD0C880B990B0E9482279B01AC01A7
:103EB000C301B2010E94F4286093CA057093CB0538
:103EC0008093CC059093CD056CE270E0C8010E9410
:103ED0006A2EFC019C012F5F3F4F81818C3201F1E2
:103EE000833589F48091CA059091CB05A091CC05CA
:103EF000B091CD05B0588093CA059093CB05A0939F
:103F0000CC05B093CD0591819E3411F0933519F411
:103F10009093EA0505C09C3209F081C11092EA0530
:103F20006CE270E0C9010E946A2E7C018C010F5F77
:103F30001F4FDC0111968C918C3209F4A9C043E02B
:103F400050E0B801CE0101960E947C2E1C82CE0169
:103F500001960E9415239B01AC0160E876E988E98F
:103F600090E00E94E62B2B013C01B7016C5F7F4F74
:103F700042E050E0CE0101960E947C2E0A5F1F4F66
:103F800044E050E0B801CE0103960E947C2E1F82CF
:103F9000CE0101960E9415239B01AC01A2E3B0E083
:103FA0000E94A22823E030E040E050E00E942C2C48
:103FB00069017A01D301C201820F931FA41FB51FAB
:103FC0008093C6059093C705A093C805B093C90513
:103FD000C301B20120EA36E841E050E00E942C2CF7
:103FE000CA01B9010E9482272B013C01C701B60119
:103FF0000E9482272CE933E549EC56E30E94E12731
:104000009B01AC01C301B2010E94F4282B013C01C9
:104010006093BE057093BF058093C0059093C10562
:1040200020E030E048EC52E40E9460290E94D2294E
:104030006B017C0184E68C9DB0018D9D700D112477
:10404000072E000C880B990B0E9482279B01AC0164
:10405000C301B2010E94F32820E030E040E752E4BF
:104060000E9460292B013C01B601DD0C880B990BE5
:104070000E9482279B01AC01C301B2010E94F42877
:104080006093CE057093CF058093D0059093D105B2
:104090006CE270E0C8010E946A2EFC019C012F5F57
:1040A0003F4F81818C3201F1873589F48091CE05B3
:1040B0009091CF05A091D005B091D105B0588093D3
:1040C000CE059093CF05A093D005B093D1059181F3
:1040D000973511F0953419F49093EB0505C09C3297
:1040E00009F09DC01092EB056CE270E0C9010E94DE
:1040F0006A2E8C010F5F1F4FFC0181818C3259F0B9
:10410000C8010E94F3226093DA057093DB05809367
:10411000DC059093DD056CE270E0C8010E946A2E18
:104120008C010F5F1F4FDC0111968C918C3259F07E
:10413000C8010E94F3226093DE057093DF0580932F
:10414000E0059093E1056CE270E0C8010E946A2EE0
:10415000FC0121812C32E9F001960E94F3220E9499
:10416000D9296B017C0120E137E240E050E00E9458
:104170000A2C2093B705A50194010E940A2C2093D4
:10418000B605C701B601A50194010E940A2C6093EF
:10419000B5056796FFAD6797F11128C940C00115B5
:1041A000110581F08E159F0508F47C0124966EADF3
:1041B0007FAD2497A701C8010E947C2EF801EE0D67
:1041C000FF1D1082B80181EB93E00E94020ED8011E
:1041D0002C9111968C91082E000C990B820F911D39
:1041E00027FD9A959F938F931F930F938DE492E0F1
:1041F0009F938F931F930F930E94A52E42E0B801C7
:1042000080E595E00E942A1064EF71E080E090E084
:104210000E94030FCE018E5B9F4F0E945B0DCE016B
:10422000885B9F4F0E945B0D0FB6F8943EBE0FBE99
:104230002DBE0E94AD0B0C949118CF93DF93CDB798
:10424000DEB7CF55D1090FB6F894DEBF0FBECDBF94
:104250001092B4031092B30388EE93E0A0E0B0E0B4
:104260008093B5039093B603A093B703B093B803BC
:1042700023E331E03093B2032093B10325EC30E027
:104280003093BE032093BD0324EC30E03093C00391
:104290002093BF0320EC30E03093C2032093C1038E
:1042A00021EC30E03093C4032093C30322EC30E0D0
:1042B0003093C6032093C50326EC30E03093C80347
:1042C0002093C7031092CA031092CB031092CC0321
:1042D0001092CD0310927506109274061092770614
:1042E00010927606109279061092780625E431E055
:1042F000309373062093720620E520937A0610927D
:104300007B061092510410925004809352049093B3
:104310005304A0935404B09355042DE531E0309339
:104320004F0420934E0424EF31E030932106209374
:1043300020061092040610920306809305069093BF
:104340000606A0930706B09308068BE991E09093C8
:10435000020680930106109218061092170610921A
:104360001A061092190610921C0610921B06109243
:104370001E0610921D0660911F066E7F6D7F609372
:104380001F066695617081E0682783E00E94970EA2
:1043900061E083E00E94C70EE0E4F3E0E491E09383
:1043A0001106ECE2F3E0E491F0E0EE0FFF1FEB5EAC
:1043B000FC4F85919491909313068093120660E0D0
:1043C00084E00E94C70E80911F0681FD04C061E059
:1043D00084E00E94970E94E090930D06E1E4F3E0F0
:1043E000E491E0930E06EDE2F3E0E491F0E0EE0FED
:1043F000FF1FE15EFC4F259134913093100620930E
:104400000F06109200061092FF0510924F051092B1
:10441000FC0510924E0524ED34E030934D052093B9
:104420004C052AE534E03093D3042093D204109253
:10443000EF051092EE051092B7051092B605109296
:10444000B5051092B4051092B3051092B205109202
:10445000EC051092EB051092EA051092ED05109212
:10446000B9051092B8051092E6051092E705109272
:10447000E8051092E9051092E2051092E30510920A
:10448000E4051092E5051092DE051092DF0510920A
:10449000E0051092E1051092DA051092DB0510920A
:1044A000DC051092DD051092D6051092D70510920A
:1044B000D8051092D9051092D2051092D30510920A
:1044C000D4051092D5051092BE051092BF0510922A
:1044D000C0051092C1051092BA051092BB0510924A
:1044E000BC051092BD0521E036E03093FE05209317
:1044F000FD0510925305109252058FEF80935405DD
:1045000080935A0580935B0510925C0510925D05BF
:104510001092600510925F0510926205109261057D
:10452000109264051092630522E736E03093660529
:10453000209365052AE0209367052FE631E030934C
:1045400051052093500522E02093680590936A0559
:10455000809369051C821B82198A188A1B8A1A8A11
:104560001D8A1C8A89E090E09093B0058093AF0586
:1045700085E091E08093B105C15ADF4F0FB6F89402
:10458000DEBF0FBECDBFDF91CF910895BC018091FA
:10459000FD059091FE05009721F48091FF05909113
:1045A00000060C94020EEF920F931F93CF93DF93AC
:1045B000E80147FD02C034E001C034E1E42F440FBC
:1045C000FF0BF7FF03C0F195E195F109E32E022FF0
:1045D0002E2FAE010E948723CE01DF91CF911F9134
:1045E0000F91EF900895662777270C941525FC010D
:1045F00088279927E89421912032E9F3293010F097
:104600002E30C8F32B3241F02D3239F4689404C0B7
:104610000E945A23820F911D219120532A30C0F30A
:104620001EF4909581959F4F08951F93FC01992743
:104630008827BC01E89411911032E9F3193010F089
:104640001E30C8F31B3251F01D3249F4689406C085
:104650000E944523610F711D811D911D1191105301
:104660001A30B0F33EF490958095709561957F4F28
:104670008F4F9F4F1F910895FB01DC0102C00590F1
:104680000D9241505040D8F70895592F482F372F99
:10469000262F660F771F881F991F660F771F881FA9
:1046A000991F620F731F841F951F660F771F881F46
:1046B000991F08957AE0979F902D879F802D910DE7
:1046C000112408954532510520F4423010F00C9425
:1046D0006D23FB011082CB010895BB27FB015527F9
:1046E000AA27880F991FAA1FA41710F0A41B83954F
:1046F0005051B9F7A05DAA3308F0A95DA1930097C6
:1047000079F7B111B1931192CB010C946B274F92B1
:104710005F926F927F929F92AF92BF92CF92DF9201
:10472000EF92FF920F931F93CF93DF93CDB7DEB736
:1047300029970FB6F894DEBF0FBECDBF6A01122FC6
:10474000B02E2BE3201720F0FF24F394F00E02C0CC
:10475000BCE3FB2E0F2D27E0AE014F5F5F4F0E94A1
:104760007226AC018981982F9970913031F0E1FC6B
:1047700006C0E0FE06C090E205C09DE203C09BE2D9
:1047800001C090E0EE2DE07183FF3CC0911102C0AA
:1047900083E001C084E0811718F4212F281B01C099
:1047A00020E0E1110BC0F601822F30E2882319F0DE
:1047B00031938150FBCFC20ED11C20E0992329F008
:1047C000D6019C93F60131966F01C6010396E2FE75
:1047D0000AC03EE4D6013C9341E411964C931197F4
:1047E00012963C9306C03EE6F601308341E64183D3
:1047F0003283FC01322F40E2332309F442C041935B
:104800003150FACF82FF44C0911102C083E001C051
:1048100084E0811718F4212F281B01C020E0E1114A
:104820000BC0F601822F30E2882319F031938150BA
:10483000FBCFC20ED11C20E0992329F0D6019C9316
:10484000F60131966F01C6010396E2FE0BC039E412
:10485000D6013C933EE411963C93119736E41296B0
:104860003C9307C039E6F60130833EE6318336E6F5
:104870003283FC01322F40E2332319F0419331504F
:10488000FBCFFC01E20FF11D10828EEF9FEFB7C04E
:10489000F1E0911101C0F0E06F2F70E014161506E1
:1048A00024F49A012F5F3F4F02C021E030E0260F31
:1048B000371FBB2029F06B2D70E06F5F7F4F02C068
:1048C00060E070E0260F371F612F70E02617370772
:1048D0001CF4121B212F01C020E03E2D387159F429
:1048E000D601322F60E2332319F06D933150FBCFA4
:1048F000C20ED11C20E0FF2331F0D6019C93B601FB
:104900006F5F7F4F6B01E1110BC0F601922F30E317
:10491000992319F031939150FBCFC20ED11C20E0A6
:104920009F2D940F3A81782F7071A72E84FF03C0BA
:10493000313309F49150191624F4993018F098E0A5
:1049400001C091E0E42F852F57FF02C0E0E080E036
:104950006E2F782FE0E0F0E0AEE29A2E3A01691A6D
:1049600071082A01461A570A0B2D10E0119501957E
:1049700011096F3F8FEF780729F4D6019C92C60189
:1049800001966C014617570784F0661677066CF49B
:104990007F01E40CF51CA1E0B0E0AC0FBD1FEA0EF6
:1049A000FB1ED7011196BC9002C090E3B92E615056
:1049B00071093196C60101967C016017710724F0D8
:1049C000D601BC926C01D5CF6417750741F436331C
:1049D00020F4353321F4A11002C081E3B82EF60192
:1049E000B082F701822F90E2882319F091938150D1
:1049F000FBCFF701E20FF11D108280E090E02996D5
:104A00000FB6F894DEBF0FBECDBFDF91CF911F91DF
:104A10000F91FF90EF90DF90CF90BF90AF909F905D
:104A20007F906F905F904F900895A0E0B0E0EBE131
:104A3000F5E20C94B128EC017B016115710519F0C8
:104A4000DB018D939C938E010F5F1F4F7880872D24
:104A500090E00E944A27892B11F0E801F4CFBDE2D3
:104A60007B1205C00F5F1F4F7980C1E008C0EBE2E9
:104A70007E1204C08E010E5F1F4F7980C0E0680176
:104A8000F1E0CF1AD10843E050E062EF70E0C601D8
:104A90000E945327892BF1F4680122E0C20ED11C39
:104AA00045E050E06DEE70E0C6010E945327892B6F
:104AB00021F4680187E0C80ED11CE114F10419F05B
:104AC000D701CD92DC92C111FFC060E070E080E8B8
:104AD0009FE703C143E050E06AEE70E0C6010E9428
:104AE0005327892B51F4E114F10409F4F2C00E5F4D
:104AF0001F4FF70111830083ECC0680160E070E094
:104B0000CB0100E010E0F601D0EDD70DDA3058F51A
:104B10002C2F2260622E2C2F2870C2FF05C021117D
:104B200028C00F5F1F4F25C0222311F0015011092B
:104B3000A5E0B0E09B01AC010E94A2284B015C0102
:104B4000880C991CAA1CBB1CC501B4016D0F711DFA
:104B5000811D911D6839A9E97A078A07A9E19A0799
:104B600040F0C66005C0DE3F51F4C3FD44C0C860DC
:104B70006C2EBFEFCB1ADB0A7080C62DC4CF2D2F51
:104B80002F7D2531C1F540814D3211F4C06106C041
:104B90004B3221F0319621E030E006C03296D6014A
:104BA00011964C9122E030E0A0EDA40FAA3018F04D
:104BB000E21BF30B20C040E050E04038BCE05B0754
:104BC0005CF49A01220F331F220F331F420F531F31
:104BD000440F551F4A0F511D3196DF0111972C913B
:104BE000A0EDA20FAA3048F3C4FF03C05195419530
:104BF0005109040F151FC1FF07C0E114F10421F092
:104C00003197D701ED93FC930E948027C370C33086
:104C100019F06B017C0106C06B017C01F7FAF0947E
:104C2000F7F8F09420E030E0A901C701B6010E9436
:104C30007B27882309F445C017FF06C0119501950D
:104C40001109C9E0D1E002C0C1E2D1E05E01B8E1E2
:104C5000AB1AB1084601BE2DAF2D90E2E92EF12C22
:104C60000E151F0584F0FE01259135914591549153
:104C7000B4018B2F9A2F0E94E1274B01B82FA92F47
:104C80000E191F09EDCF2497F594E794CA15DB059B
:104C900039F76401EB2EFA2E8E2D880F8F2D881F89
:104CA0008F3F49F020E030E0A901C701B6010E9422
:104CB0007B27811106C082E290E090937D0680936D
:104CC0007C06C701B60109C060E070E080E89FEF94
:104CD00004C060E070E080EC9FE7CDB7DEB7EEE0A7
:104CE0000C94CD28283008F027E03327DA01990FFB
:104CF000311D87FD916000966105710539F43260C0
:104D00002E5F3D9330E32A95E1F708959F3F30F001
:104D100080387105610509F03C5F3C5F3D9391303F
:104D200008F08068911DDF93CF931F930F93FF923C
:104D3000EF92192F987F9695E92F96959695E90F02
:104D4000FF27E158FE4F99273327EE24FF24A701C0
:104D5000E70105900894079428F4360FE71EF81E23
:104D6000491F511D660F771F881F991F0694A1F7D1
:104D70000590079428F4E70EF81E491F561FC11D21
:104D8000770F881F991F661F0694A1F70590079457
:104D900028F4F80E491F561FC71FD11D880F991FF1
:104DA000661F771F0694A1F70590079420F4490F1A
:104DB000561FC71FD81F990F661F771F881F06949D
:104DC000A9F784911095177041F0D695C79557951E
:104DD0004795F794E7941A95C1F7E5E2F1E06894F6
:104DE0001590159135916591959105907FE2739598
:104DF000E118F10A430B560BC90BD009C0F7E10CBF
:104E0000F11E431F561FC91FD01D7EF4703311F4CD
:104E10008A95E6CFE894015030F0080F0AF4002795
:104E2000021708F4202F2395022F7A3328F079E314
:104E30007D932A95E9F710C07D932A9589F606940B
:104E400097956795379517951794E118F10A430BD5
:104E5000560BC90BD00998F023957E9173957A3340
:104E600008F070E37C932013B8F77E9170617D9316
:104E700030F0839571E37D9370E32A95E1F7112477
:104E8000EF90FF900F911F91CF91DF91992787FDB0
:104E90009095089591110C944E28803219F0895004
:104EA0008550C8F70895FB01DC014150504088F05F
:104EB0008D9181341CF08B350CF4805E65916134EA
:104EC0001CF06B350CF4605E861B611171F3990B5D
:104ED0000895881BFCCFDC01FC01672F71917723BB
:104EE000E1F7329704C07C916D9370836291AE17A5
:104EF000BF07C8F308950E94BD2708F481E0089514
:104F0000E89409C097FB3EF4909580957095619563
:104F10007F4F8F4F9F4F9923A9F0F92F96E9BB2719
:104F20009395F695879577956795B795F111F8CF95
:104F3000FAF4BB0F11F460FF1BC06F5F7F4F8F4F00
:104F40009F4F16C0882311F096E911C0772321F0F6
:104F50009EE8872F762F05C0662371F096E8862F8E
:104F600070E060E02AF09A95660F771F881FDAF7E5
:104F7000880F9695879597F90895990F0008550F12
:104F8000AA0BE0E8FEEF16161706E807F907C0F0CF
:104F900012161306E407F50798F0621B730B840BD7
:104FA000950B39F40A2661F0232B242B252B21F4B1
:104FB00008950A2609F4A140A6958FEF811D811D51
:104FC00008950E94F4270C9468280E945A2838F00B
:104FD0000E94612820F0952311F00C9451280C9424
:104FE000572811240C949C280E94792870F3959FCF
:104FF000C1F3950F50E0551F629FF001729FBB27D0
:10500000F00DB11D639FAA27F00DB11DAA1F649F6B
:105010006627B00DA11D661F829F2227B00DA11D1E
:10502000621F739FB00DA11D621F839FA00D611DA4
:10503000221F749F3327A00D611D231F849F600DC5
:10504000211D822F762F6A2F11249F5750409AF0EE
:10505000F1F088234AF0EE0FFF1FBB1F661F771F7A
:10506000881F91505040A9F79E3F510580F00C9445
:1050700051280C949C285F3FE4F3983ED4F3869526
:1050800077956795B795F795E7959F5FC1F7FE2BE5
:10509000880F911D9695879597F9089599278827E8
:1050A000089597F99F6780E870E060E008959FEFAA
:1050B00080EC089500240A941616170618060906AF
:1050C000089500240A94121613061406050608957E
:1050D000092E0394000C11F4882352F0BB0F40F406
:1050E000BF2B11F460FF04C06F5F7F4F8F4F9F4F46
:1050F000089557FD9058440F551F59F05F3F71F0C8
:105100004795880F97FB991F61F09F3F79F087952E
:105110000895121613061406551FF2CF4695F1DFB7
:1051200008C0161617061806991FF1CF8695710547
:10513000610508940895E894BB2766277727CB017B
:1051400097F908950E94E428A59F900DB49F900DB3
:10515000A49F800D911D112408952F923F924F928C
:105160005F926F927F928F929F92AF92BF92CF92F7
:10517000DF92EF92FF920F931F93CF93DF93CDB700
:10518000DEB7CA1BDB0B0FB6F894DEBF0FBECDBF78
:1051900009942A88398848885F846E847D848C8449
:1051A0009B84AA84B984C884DF80EE80FD800C8152
:1051B0001B81AA81B981CE0FD11D0FB6F894DEBF35
:1051C0000FBECDBFED010895A29FB001B39FC001F6
:1051D000A39F700D811D1124911DB29F700D811D23
:1051E0001124911D08955058BB27AA270E940B290E
:1051F0000C9468280E945A2838F00E94612820F0F8
:1052000039F49F3F19F426F40C9457280EF4E095D6
:10521000E7FB0C945128E92F0E94792858F3BA171C
:10522000620773078407950720F079F4A6F50C94BC
:105230009B280EF4E0950B2EBA2FA02D0B01B9017F
:1052400090010C01CA01A0011124FF27591B99F0FC
:10525000593F50F4503E68F11A16F040A22F232F08
:10526000342F4427585FF3CF469537952795A79558
:10527000F0405395C9F77EF41F16BA0B620B730BFF
:10528000840BBAF09150A1F0FF0FBB1F661F771F70
:10529000881FC2F70EC0BA0F621F731F841F48F425
:1052A000879577956795B795F7959E3F08F0B0CFAE
:1052B0009395880F08F09927EE0F97958795089595
:1052C0000E9474290C9468280E94612858F00E945A
:1052D0005A2840F029F45F3F29F00C9451285111CD
:1052E0000C949C280C9457280E94792868F39923E1
:1052F000B1F3552391F3951B550BBB27AA276217D2
:105300007307840738F09F5F5F4F220F331F441FDE
:10531000AA1FA9F335D00E2E3AF0E0E832D0915012
:105320005040E695001CCAF72BD0FE2F29D0660FFF
:10533000771F881FBB1F261737074807AB07B0E842
:1053400009F0BB0B802DBF01FF2793585F4F3AF048
:105350009E3F510578F00C9451280C949C285F3F97
:10536000E4F3983ED4F3869577956795B795F795CE
:105370009F5FC9F7880F911D9695879597F90895B6
:10538000E1E0660F771F881FBB1F62177307840752
:10539000BA0720F0621B730B840BBA0BEE1F88F761
:1053A000E09508950E94D9296894B1110C949C2825
:1053B00008950E94812888F09F5798F0B92F992767
:1053C000B751B0F0E1F0660F771F881F991F1AF0F0
:1053D000BA95C9F714C0B13091F00E949B28B1E092
:1053E00008950C949B28672F782F8827B85F39F091
:1053F000B93FCCF3869577956795B395D9F73EF489
:1054000090958095709561957F4F8F4F9F4F089530
:105410000E945A2820F019F00E94612850F40C9440
:1054200057280C949C28E92F0E94792888F355234B
:10543000B1F3E7FB6217730784079507A8F189F3B7
:10544000E92FFF2788232AF03197660F771F881FDF
:10545000DAF7952F5527442332F091505040220F10
:10546000331F441FD2F7BB27E91BF50B621B730BDD
:10547000840BB109B1F222F4620F731F841FB11DB6
:1054800031972AF0660F771F881FBB1FEFCF91500F
:10549000504062F041F0882332F0660F771F881F7A
:1054A00091505040C1F793950C945C2A869577955E
:1054B00067959F5FD9F7F7CF9F3F31F0915020F468
:1054C000879577956795B795880F911D96958795E0
:1054D00097F908950E94BD2708F48FEF0895FA0107
:1054E000EE0FFF1F309621053105A1F16115710501
:1054F00061F48038BFE39B0749F1689490388105D7
:1055000061F08038BFEF9B0741F099234AF5FF3FD8
:10551000E1053105210519F1E8940894E795D901D1
:10552000AA2329F4AB2FBE2FF85FD0F310C0FF5F82
:1055300070F4A695E0F7F73950F019F0FF3A38F417
:105540009F779F930DD00F9007FC9058089546F0D9
:105550000C94572860E070E080E89FE308954FE7DF
:105560009F775F934F933F932F930E946A2B2F91C6
:105570003F914F915F910E94E1270C94C72A29F433
:1055800016F00C9451280C949B280C9457280E94D8
:105590008128A8F39638A0F707F80F92E8942BE338
:1055A0003AEA48EB5FE70E94F7270F920F920F92BB
:1055B0004DB75EB70F920E94B22BE8E6F0E00E9472
:1055C000F92A4F915F91EF91FF91E595EE1FFF1F33
:1055D00049F0FE57E0684427EE0F441FFA95E1F7C3
:1055E0004195550B0E942C2B0F9007FE0C94202BFD
:1055F0000895DF93CF931F930F93FF92EF92DF9263
:105600007B018C01689406C0DA2EEF010E94F4271A
:10561000FE01E894A5912591359145915591A6F308
:10562000EF010E940B29FE019701A801DA9469F7A6
:10563000DF90EF90FF900F911F91CF91DF91089530
:105640009B01AC0160E070E080E89FE30C9460296E
:105650000C9451280C945C2A0E948128D8F3992339
:10566000C9F3940F511DA3F39150504094F059F099
:10567000882332F0660F771F881F91505040C1F782
:105680009E3F51052CF7880F911D9695879597F9A8
:1056900008955F3FACF0983E9CF0BB2786957795C8
:1056A0006795B79508F4B1609395C1F7BB0F58F7AC
:1056B00011F460FFE8CF6F5F7F4F8F4F9F4FE3CFB5
:1056C0000C949C2816F00C945C2A0C94572868942F
:1056D0000C9451280E948128A8F39923C1F3AEF3BA
:1056E000DF93CF931F930F93FF92C92FDD2788235A
:1056F0002AF02197660F771F881FDAF720E030E045
:1057000040E85FEB9FE3883920F0803E38F0219637
:105710008F770E94F428E0E9F0E004C00E94F428AA
:10572000EDEBF0E00E94F92A8B01BE01EC01FB2EAB
:105730006F5771097595771F880B990B0E94822707
:1057400028E132E741E35FE30E94F427AF2D98019F
:10575000AE01FF900F911F91CF91DF910E940B2915
:105760000C946828FA01DC01AA0FBB1F9B01AC0155
:10577000BF5728F4222733274427507820C0B75139
:1057800090F4AB2F0024469537952795011CA395DF
:10579000D2F3002071F0220F331F441FB395DAF3C8
:1057A0000ED00C94F32861307105A0E88A07B94641
:1057B00030F49B01AC0166277727882790783096D4
:1057C00021F020833183428353830895DB018F933B
:1057D0009F930E94A228BF91AF91A29F800D911D1F
:1057E000A39F900DB29F900D1124089597FB072E53
:1057F00016F4009407D077FD09D00E944B2C07FCCB
:1058000005D03EF4909581959F4F089570956195D0
:105810007F4F0895A1E21A2EAA1BBB1BFD010DC0EC
:10582000AA1FBB1FEE1FFF1FA217B307E407F50750
:1058300020F0A21BB30BE40BF50B661F771F881F2C
:10584000991F1A9469F760957095809590959B01C2
:10585000AC01BD01CF010895052E97FB1EF4009405
:105860000E94432C57FD07D00E940A2C07FC03D04E
:105870004EF40C94432C50954095309521953F4F14
:105880004F4F5F4F089590958095709561957F4F2C
:105890008F4F9F4F0895AA1BBB1B51E107C0AA1F42
:1058A000BB1FA617B70710F0A61BB70B881F991FC1
:1058B0005A95A9F780959095BC01CD010895EE0FFA
:1058C000FF1F0590F491E02D0994CF93DF93823070
:1058D000910510F482E090E0E0918006F09181065D
:1058E00020E030E0C0E0D0E0309711F140815181FC
:1058F00048175907C0F04817590761F4828193810E
:10590000209719F09B838A832BC090938106809304
:10591000800626C02115310519F04217530718F4E7
:105920009A01BE01DF01EF010280F381E02DDCCF9F
:105930002115310509F1281B390B2430310590F46C
:1059400012968D919C9113976115710521F0FB01C1
:105950009383828304C09093810680938006FD0127
:10596000329644C0FD01E20FF31F819391932250C0
:1059700031092D933C933AC020917E0630917F06E9
:10598000232B41F4209117013091180130937F06A9
:1059900020937E06209115013091160121153105C5
:1059A00041F42DB73EB74091190150911A01241BC3
:1059B000350BE0917E06F0917F06E217F307A0F425
:1059C0002E1B3F0B2817390778F0AC014E5F5F4F55
:1059D0002417350748F04E0F5F1F50937F06409302
:1059E0007E068193919302C0E0E0F0E0CF01DF9169
:1059F000CF9108950F931F93CF93DF93009709F4EE
:105A00008CC0FC01329713821282009180061091A3
:105A100081060115110581F420813181820F931FC8
:105A200020917E0630917F062817390779F5F0938B
:105A30007F06E0937E0671C0D80140E050E0AE17CB
:105A4000BF0750F412962D913C911397AD0121158B
:105A5000310509F1D901F3CF9D01DA0133832283A6
:105A600060817181860F971F8217930769F4EC019B
:105A700028813981260F371F2E5F3F4F31832083C6
:105A80008A819B8193838283452B29F4F09381063D
:105A9000E093800642C01396FC93EE931297ED01BB
:105AA000499159919E01240F351FE217F30771F4B4
:105AB00080819181840F951F029611969C938E93FD
:105AC0008281938113969C938E931297E0E0F0E08D
:105AD000D80112968D919C911397009719F0F801B7
